{
  "contractName": "Exchange",
  "abi": [
    {
      "inputs": [],
      "stateMutability": "nonpayable",
      "type": "constructor"
    },
    {
      "inputs": [],
      "name": "owner",
      "outputs": [
        {
          "internalType": "address",
          "name": "",
          "type": "address"
        }
      ],
      "stateMutability": "view",
      "type": "function",
      "constant": true
    },
    {
      "stateMutability": "payable",
      "type": "receive",
      "payable": true
    },
    {
      "inputs": [],
      "name": "checkEthBalance",
      "outputs": [
        {
          "internalType": "uint256",
          "name": "",
          "type": "uint256"
        }
      ],
      "stateMutability": "view",
      "type": "function",
      "constant": true
    },
    {
      "inputs": [],
      "name": "getListOfSupportedTokens",
      "outputs": [
        {
          "internalType": "address[]",
          "name": "",
          "type": "address[]"
        }
      ],
      "stateMutability": "view",
      "type": "function",
      "constant": true
    },
    {
      "inputs": [
        {
          "internalType": "address",
          "name": "srcToken",
          "type": "address"
        },
        {
          "internalType": "address",
          "name": "destToken",
          "type": "address"
        },
        {
          "internalType": "uint256",
          "name": "amount",
          "type": "uint256"
        }
      ],
      "name": "getExchangeRate",
      "outputs": [
        {
          "internalType": "uint256",
          "name": "",
          "type": "uint256"
        }
      ],
      "stateMutability": "view",
      "type": "function",
      "constant": true
    },
    {
      "inputs": [
        {
          "internalType": "address",
          "name": "srcTokenAddress",
          "type": "address"
        },
        {
          "internalType": "address",
          "name": "destTokenAddress",
          "type": "address"
        },
        {
          "internalType": "uint256",
          "name": "srcAmount",
          "type": "uint256"
        }
      ],
      "name": "exchange",
      "outputs": [
        {
          "internalType": "uint256",
          "name": "",
          "type": "uint256"
        }
      ],
      "stateMutability": "nonpayable",
      "type": "function"
    },
    {
      "inputs": [
        {
          "internalType": "address",
          "name": "destTokenAddress",
          "type": "address"
        }
      ],
      "name": "exchangeEthToToken",
      "outputs": [
        {
          "internalType": "uint256",
          "name": "",
          "type": "uint256"
        }
      ],
      "stateMutability": "payable",
      "type": "function",
      "payable": true
    },
    {
      "inputs": [
        {
          "internalType": "address",
          "name": "srcTokenAddress",
          "type": "address"
        },
        {
          "internalType": "uint256",
          "name": "amount",
          "type": "uint256"
        }
      ],
      "name": "exchangeTokenToEth",
      "outputs": [
        {
          "internalType": "uint256",
          "name": "",
          "type": "uint256"
        }
      ],
      "stateMutability": "nonpayable",
      "type": "function"
    },
    {
      "inputs": [
        {
          "internalType": "contract Reserve",
          "name": "newReserve",
          "type": "address"
        }
      ],
      "name": "addReserve",
      "outputs": [],
      "stateMutability": "nonpayable",
      "type": "function"
    },
    {
      "inputs": [
        {
          "internalType": "address",
          "name": "tokenAddress",
          "type": "address"
        }
      ],
      "name": "buyToken",
      "outputs": [],
      "stateMutability": "payable",
      "type": "function",
      "payable": true
    },
    {
      "inputs": [
        {
          "internalType": "address",
          "name": "tokenAddress",
          "type": "address"
        }
      ],
      "name": "removeReserve",
      "outputs": [],
      "stateMutability": "nonpayable",
      "type": "function"
    }
  ],
  "bytecode": "0x608060405234801561001057600080fd5b5033600460006101000a81548173ffffffffffffffffffffffffffffffffffffffff021916908373ffffffffffffffffffffffffffffffffffffffff160217905550612d40806100616000396000f3fe6080604052600436106100955760003560e01c8063969e375611610059578063969e37561461017e578063df0e81f8146101bb578063ea4e6ded146101f8578063ec1ca07114610223578063f5deae931461024e5761009c565b80636b441d8a146100a15780637e72fb52146100de57806380436fe0146100fa5780638da5cb5b14610123578063915db34e1461014e5761009c565b3661009c57005b600080fd5b3480156100ad57600080fd5b506100c860048036038101906100c3919061209f565b610277565b6040516100d59190612101565b60405180910390f35b6100f860048036038101906100f3919061211c565b6104ae565b005b34801561010657600080fd5b50610121600480360381019061011c919061211c565b6105e2565b005b34801561012f57600080fd5b5061013861074c565b6040516101459190612158565b60405180910390f35b6101686004803603810190610163919061211c565b610772565b6040516101759190612101565b60405180910390f35b34801561018a57600080fd5b506101a560048036038101906101a0919061209f565b610a00565b6040516101b29190612101565b60405180910390f35b3480156101c757600080fd5b506101e260048036038101906101dd9190612173565b610f44565b6040516101ef9190612101565b60405180910390f35b34801561020457600080fd5b5061020d61138b565b60405161021a9190612271565b60405180910390f35b34801561022f57600080fd5b50610238611419565b6040516102459190612101565b60405180910390f35b34801561025a57600080fd5b50610275600480360381019061027091906122d1565b611438565b005b60008060019050600073ffffffffffffffffffffffffffffffffffffffff168573ffffffffffffffffffffffffffffffffffffffff1614610382576000808673ffffffffffffffffffffffffffffffffffffffff1673ffffffffffffffffffffffffffffffffffffffff16815260200190815260200160002060009054906101000a900473ffffffffffffffffffffffffffffffffffffffff1673ffffffffffffffffffffffffffffffffffffffff16632c4e722e6040518163ffffffff1660e01b8152600401602060405180830381865afa15801561035b573d6000803e3d6000fd5b505050506040513d601f19601f8201168201806040525081019061037f9190612313565b90505b600060019050600073ffffffffffffffffffffffffffffffffffffffff168573ffffffffffffffffffffffffffffffffffffffff161461048c576000808673ffffffffffffffffffffffffffffffffffffffff1673ffffffffffffffffffffffffffffffffffffffff16815260200190815260200160002060009054906101000a900473ffffffffffffffffffffffffffffffffffffffff1673ffffffffffffffffffffffffffffffffffffffff16632c4e722e6040518163ffffffff1660e01b8152600401602060405180830381865afa158015610465573d6000803e3d6000fd5b505050506040513d601f19601f820116820180604052508101906104899190612313565b90505b818185610499919061236f565b6104a391906123f8565b925050509392505050565b600460009054906101000a900473ffffffffffffffffffffffffffffffffffffffff1673ffffffffffffffffffffffffffffffffffffffff163373ffffffffffffffffffffffffffffffffffffffff161461050857600080fd5b60008060008373ffffffffffffffffffffffffffffffffffffffff1673ffffffffffffffffffffffffffffffffffffffff16815260200190815260200160002060009054906101000a900473ffffffffffffffffffffffffffffffffffffffff1690508073ffffffffffffffffffffffffffffffffffffffff1663a6f2ae3a346040518263ffffffff1660e01b815260040160206040518083038185885af11580156105b8573d6000803e3d6000fd5b50505050506040513d601f19601f820116820180604052508101906105dd9190612461565b505050565b600460009054906101000a900473ffffffffffffffffffffffffffffffffffffffff1673ffffffffffffffffffffffffffffffffffffffff163373ffffffffffffffffffffffffffffffffffffffff161461063c57600080fd5b60005b6001805490508160ff1610156106e75760018160ff16815481106106665761066561248e565b5b9060005260206000200160009054906101000a900473ffffffffffffffffffffffffffffffffffffffff1673ffffffffffffffffffffffffffffffffffffffff168273ffffffffffffffffffffffffffffffffffffffff16036106d4576106cf8160ff166119e6565b6106e7565b80806106df906124ca565b91505061063f565b506000808273ffffffffffffffffffffffffffffffffffffffff1673ffffffffffffffffffffffffffffffffffffffff16815260200190815260200160002060006101000a81549073ffffffffffffffffffffffffffffffffffffffff021916905550565b600460009054906101000a900473ffffffffffffffffffffffffffffffffffffffff1681565b6000806000808473ffffffffffffffffffffffffffffffffffffffff1673ffffffffffffffffffffffffffffffffffffffff16815260200190815260200160002060009054906101000a900473ffffffffffffffffffffffffffffffffffffffff16905060008173ffffffffffffffffffffffffffffffffffffffff1663fc0c546a6040518163ffffffff1660e01b8152600401602060405180830381865afa158015610823573d6000803e3d6000fd5b505050506040513d601f19601f820116820180604052508101906108479190612531565b90508173ffffffffffffffffffffffffffffffffffffffff1663a6f2ae3a346040518263ffffffff1660e01b815260040160206040518083038185885af1158015610896573d6000803e3d6000fd5b50505050506040513d601f19601f820116820180604052508101906108bb9190612461565b6108fa576040517f08c379a00000000000000000000000000000000000000000000000000000000081526004016108f1906125e1565b60405180910390fd5b6000610974348473ffffffffffffffffffffffffffffffffffffffff16632c4e722e6040518163ffffffff1660e01b8152600401602060405180830381865afa15801561094b573d6000803e3d6000fd5b505050506040513d601f19601f8201168201806040525081019061096f9190612313565b611c28565b90508173ffffffffffffffffffffffffffffffffffffffff1663a9059cbb33836040518363ffffffff1660e01b81526004016109b1929190612601565b6020604051808303816000875af11580156109d0573d6000803e3d6000fd5b505050506040513d601f19601f820116820180604052508101906109f49190612461565b50809350505050919050565b6000806000808673ffffffffffffffffffffffffffffffffffffffff1673ffffffffffffffffffffffffffffffffffffffff16815260200190815260200160002060009054906101000a900473ffffffffffffffffffffffffffffffffffffffff16905060008060008673ffffffffffffffffffffffffffffffffffffffff1673ffffffffffffffffffffffffffffffffffffffff16815260200190815260200160002060009054906101000a900473ffffffffffffffffffffffffffffffffffffffff16905060008273ffffffffffffffffffffffffffffffffffffffff1663fc0c546a6040518163ffffffff1660e01b8152600401602060405180830381865afa158015610b14573d6000803e3d6000fd5b505050506040513d601f19601f82011682018060405250810190610b389190612531565b905060008273ffffffffffffffffffffffffffffffffffffffff1663fc0c546a6040518163ffffffff1660e01b8152600401602060405180830381865afa158015610b87573d6000803e3d6000fd5b505050506040513d601f19601f82011682018060405250810190610bab9190612531565b905060008611610bf0576040517f08c379a0000000000000000000000000000000000000000000000000000000008152600401610be79061269c565b60405180910390fd5b858273ffffffffffffffffffffffffffffffffffffffff1663dd62ed3e33306040518363ffffffff1660e01b8152600401610c2c9291906126bc565b602060405180830381865afa158015610c49573d6000803e3d6000fd5b505050506040513d601f19601f82011682018060405250810190610c6d9190612313565b1015610cae576040517f08c379a0000000000000000000000000000000000000000000000000000000008152600401610ca590612757565b60405180910390fd5b6000610cbb898989610277565b9050868373ffffffffffffffffffffffffffffffffffffffff166370a08231336040518263ffffffff1660e01b8152600401610cf79190612158565b602060405180830381865afa158015610d14573d6000803e3d6000fd5b505050506040513d601f19601f82011682018060405250810190610d389190612313565b1015610d79576040517f08c379a0000000000000000000000000000000000000000000000000000000008152600401610d70906127e9565b60405180910390fd5b808273ffffffffffffffffffffffffffffffffffffffff166370a08231306040518263ffffffff1660e01b8152600401610db39190612158565b602060405180830381865afa158015610dd0573d6000803e3d6000fd5b505050506040513d601f19601f82011682018060405250810190610df49190612313565b1015610e35576040517f08c379a0000000000000000000000000000000000000000000000000000000008152600401610e2c906128a1565b60405180910390fd5b8273ffffffffffffffffffffffffffffffffffffffff166323b872dd33308a6040518463ffffffff1660e01b8152600401610e72939291906128c1565b6020604051808303816000875af1158015610e91573d6000803e3d6000fd5b505050506040513d601f19601f82011682018060405250810190610eb59190612461565b508173ffffffffffffffffffffffffffffffffffffffff1663a9059cbb33836040518363ffffffff1660e01b8152600401610ef1929190612601565b6020604051808303816000875af1158015610f10573d6000803e3d6000fd5b505050506040513d601f19601f82011682018060405250810190610f349190612461565b5080955050505050509392505050565b6000806000808573ffffffffffffffffffffffffffffffffffffffff1673ffffffffffffffffffffffffffffffffffffffff16815260200190815260200160002060009054906101000a900473ffffffffffffffffffffffffffffffffffffffff16905060008173ffffffffffffffffffffffffffffffffffffffff1663fc0c546a6040518163ffffffff1660e01b8152600401602060405180830381865afa158015610ff5573d6000803e3d6000fd5b505050506040513d601f19601f820116820180604052508101906110199190612531565b90508073ffffffffffffffffffffffffffffffffffffffff166323b872dd3330876040518463ffffffff1660e01b8152600401611058939291906128c1565b6020604051808303816000875af1158015611077573d6000803e3d6000fd5b505050506040513d601f19601f8201168201806040525081019061109b9190612461565b508073ffffffffffffffffffffffffffffffffffffffff1663095ea7b36000808873ffffffffffffffffffffffffffffffffffffffff1673ffffffffffffffffffffffffffffffffffffffff16815260200190815260200160002060009054906101000a900473ffffffffffffffffffffffffffffffffffffffff16670de0b6b3a76400008761112b919061236f565b6040518363ffffffff1660e01b8152600401611148929190612601565b6020604051808303816000875af1158015611167573d6000803e3d6000fd5b505050506040513d601f19601f8201168201806040525081019061118b9190612461565b508173ffffffffffffffffffffffffffffffffffffffff1663e4849b32856040518263ffffffff1660e01b81526004016111c59190612101565b6020604051808303816000875af11580156111e4573d6000803e3d6000fd5b505050506040513d601f19601f820116820180604052508101906112089190612461565b611247576040517f08c379a000000000000000000000000000000000000000000000000000000000815260040161123e9061296a565b60405180910390fd5b3373ffffffffffffffffffffffffffffffffffffffff166108fc8373ffffffffffffffffffffffffffffffffffffffff16632c4e722e6040518163ffffffff1660e01b8152600401602060405180830381865afa1580156112ac573d6000803e3d6000fd5b505050506040513d601f19601f820116820180604052508101906112d09190612313565b866112db91906123f8565b9081150290604051600060405180830381858888f19350505050158015611306573d6000803e3d6000fd5b508173ffffffffffffffffffffffffffffffffffffffff16632c4e722e6040518163ffffffff1660e01b8152600401602060405180830381865afa158015611352573d6000803e3d6000fd5b505050506040513d601f19601f820116820180604052508101906113769190612313565b8461138191906123f8565b9250505092915050565b6060600180548060200260200160405190810160405280929190818152602001828054801561140f57602002820191906000526020600020905b8160009054906101000a900473ffffffffffffffffffffffffffffffffffffffff1673ffffffffffffffffffffffffffffffffffffffff16815260200190600101908083116113c5575b5050505050905090565b60003073ffffffffffffffffffffffffffffffffffffffff1631905090565b600460009054906101000a900473ffffffffffffffffffffffffffffffffffffffff1673ffffffffffffffffffffffffffffffffffffffff163373ffffffffffffffffffffffffffffffffffffffff161461149257600080fd5b60008173ffffffffffffffffffffffffffffffffffffffff1663fc0c546a6040518163ffffffff1660e01b8152600401602060405180830381865afa1580156114df573d6000803e3d6000fd5b505050506040513d601f19601f820116820180604052508101906115039190612531565b9050600081905060008273ffffffffffffffffffffffffffffffffffffffff166395d89b416040518163ffffffff1660e01b8152600401600060405180830381865afa158015611557573d6000803e3d6000fd5b505050506040513d6000823e3d601f19601f820116820180604052508101906115809190612af4565b905060008373ffffffffffffffffffffffffffffffffffffffff166306fdde036040518163ffffffff1660e01b8152600401600060405180830381865afa1580156115cf573d6000803e3d6000fd5b505050506040513d6000823e3d601f19601f820116820180604052508101906115f89190612af4565b905060005b6001805490508160ff1610156118865760018160ff16815481106116245761162361248e565b5b9060005260206000200160009054906101000a900473ffffffffffffffffffffffffffffffffffffffff1673ffffffffffffffffffffffffffffffffffffffff168473ffffffffffffffffffffffffffffffffffffffff160361168657600080fd5b6117ac8573ffffffffffffffffffffffffffffffffffffffff166395d89b416040518163ffffffff1660e01b8152600401600060405180830381865afa1580156116d4573d6000803e3d6000fd5b505050506040513d6000823e3d601f19601f820116820180604052508101906116fd9190612af4565b60028360ff16815481106117145761171361248e565b5b90600052602060002001805461172990612b6c565b80601f016020809104026020016040519081016040528092919081815260200182805461175590612b6c565b80156117a25780601f10611777576101008083540402835291602001916117a2565b820191906000526020600020905b81548152906001019060200180831161178557829003601f168201915b5050505050611c95565b156117b657600080fd5b6118698260038360ff16815481106117d1576117d061248e565b5b9060005260206000200180546117e690612b6c565b80601f016020809104026020016040519081016040528092919081815260200182805461181290612b6c565b801561185f5780601f106118345761010080835404028352916020019161185f565b820191906000526020600020905b81548152906001019060200180831161184257829003601f168201915b5050505050611c95565b1561187357600080fd5b808061187e906124ca565b9150506115fd565b50846000808573ffffffffffffffffffffffffffffffffffffffff1673ffffffffffffffffffffffffffffffffffffffff16815260200190815260200160002060006101000a81548173ffffffffffffffffffffffffffffffffffffffff021916908373ffffffffffffffffffffffffffffffffffffffff1602179055506001839080600181540180825580915050600190039060005260206000200160009091909190916101000a81548173ffffffffffffffffffffffffffffffffffffffff021916908373ffffffffffffffffffffffffffffffffffffffff1602179055506002829080600181540180825580915050600190039060005260206000200160009091909190915090805190602001906119a2929190611e87565b506003819080600181540180825580915050600190039060005260206000200160009091909190915090805190602001906119de929190611e87565b505050505050565b60008190505b600180805490506119fd9190612b9d565b811015611b7d5760018082611a129190612bd1565b81548110611a2357611a2261248e565b5b9060005260206000200160009054906101000a900473ffffffffffffffffffffffffffffffffffffffff1660018281548110611a6257611a6161248e565b5b9060005260206000200160006101000a81548173ffffffffffffffffffffffffffffffffffffffff021916908373ffffffffffffffffffffffffffffffffffffffff1602179055506002600182611ab99190612bd1565b81548110611aca57611ac961248e565b5b9060005260206000200160028281548110611ae857611ae761248e565b5b90600052602060002001908054611afe90612b6c565b611b09929190611f0d565b506003600182611b199190612bd1565b81548110611b2a57611b2961248e565b5b9060005260206000200160038281548110611b4857611b4761248e565b5b90600052602060002001908054611b5e90612b6c565b611b69929190611f0d565b508080611b7590612c27565b9150506119ec565b506001805480611b9057611b8f612c6f565b5b6001900381819060005260206000200160006101000a81549073ffffffffffffffffffffffffffffffffffffffff021916905590556002805480611bd757611bd6612c6f565b5b600190038181906000526020600020016000611bf39190611f9a565b90556003805480611c0757611c06612c6f565b5b600190038181906000526020600020016000611c239190611f9a565b905550565b600080821480611c50575082828385611c41919061236f565b925082611c4e91906123f8565b145b611c8f576040517f08c379a0000000000000000000000000000000000000000000000000000000008152600401611c8690612cea565b60405180910390fd5b92915050565b600080611ca28484611cab565b14905092915050565b60008083905060008390506000825190508082511015611cca57815190505b60005b81811015611e2d57828181518110611ce857611ce761248e565b5b602001015160f81c60f81b7effffffffffffffffffffffffffffffffffffffffffffffffffffffffffffff1916848281518110611d2857611d2761248e565b5b602001015160f81c60f81b7effffffffffffffffffffffffffffffffffffffffffffffffffffffffffffff19161015611d87577fffffffffffffffffffffffffffffffffffffffffffffffffffffffffffffffff945050505050611e81565b828181518110611d9a57611d9961248e565b5b602001015160f81c60f81b7effffffffffffffffffffffffffffffffffffffffffffffffffffffffffffff1916848281518110611dda57611dd961248e565b5b602001015160f81c60f81b7effffffffffffffffffffffffffffffffffffffffffffffffffffffffffffff19161115611e1a576001945050505050611e81565b8080611e2590612c27565b915050611ccd565b50815183511015611e63577fffffffffffffffffffffffffffffffffffffffffffffffffffffffffffffffff9350505050611e81565b815183511115611e795760019350505050611e81565b600093505050505b92915050565b828054611e9390612b6c565b90600052602060002090601f016020900481019282611eb55760008555611efc565b82601f10611ece57805160ff1916838001178555611efc565b82800160010185558215611efc579182015b82811115611efb578251825591602001919060010190611ee0565b5b509050611f099190611fda565b5090565b828054611f1990612b6c565b90600052602060002090601f016020900481019282611f3b5760008555611f89565b82601f10611f4c5780548555611f89565b82800160010185558215611f8957600052602060002091601f016020900482015b82811115611f88578254825591600101919060010190611f6d565b5b509050611f969190611fda565b5090565b508054611fa690612b6c565b6000825580601f10611fb85750611fd7565b601f016020900490600052602060002090810190611fd69190611fda565b5b50565b5b80821115611ff3576000816000905550600101611fdb565b5090565b6000604051905090565b600080fd5b600080fd5b600073ffffffffffffffffffffffffffffffffffffffff82169050919050565b60006120368261200b565b9050919050565b6120468161202b565b811461205157600080fd5b50565b6000813590506120638161203d565b92915050565b6000819050919050565b61207c81612069565b811461208757600080fd5b50565b60008135905061209981612073565b92915050565b6000806000606084860312156120b8576120b7612001565b5b60006120c686828701612054565b93505060206120d786828701612054565b92505060406120e88682870161208a565b9150509250925092565b6120fb81612069565b82525050565b600060208201905061211660008301846120f2565b92915050565b60006020828403121561213257612131612001565b5b600061214084828501612054565b91505092915050565b6121528161202b565b82525050565b600060208201905061216d6000830184612149565b92915050565b6000806040838503121561218a57612189612001565b5b600061219885828601612054565b92505060206121a98582860161208a565b9150509250929050565b600081519050919050565b600082825260208201905092915050565b6000819050602082019050919050565b6121e88161202b565b82525050565b60006121fa83836121df565b60208301905092915050565b6000602082019050919050565b600061221e826121b3565b61222881856121be565b9350612233836121cf565b8060005b8381101561226457815161224b88826121ee565b975061225683612206565b925050600181019050612237565b5085935050505092915050565b6000602082019050818103600083015261228b8184612213565b905092915050565b600061229e8261202b565b9050919050565b6122ae81612293565b81146122b957600080fd5b50565b6000813590506122cb816122a5565b92915050565b6000602082840312156122e7576122e6612001565b5b60006122f5848285016122bc565b91505092915050565b60008151905061230d81612073565b92915050565b60006020828403121561232957612328612001565b5b6000612337848285016122fe565b91505092915050565b7f4e487b7100000000000000000000000000000000000000000000000000000000600052601160045260246000fd5b600061237a82612069565b915061238583612069565b9250817fffffffffffffffffffffffffffffffffffffffffffffffffffffffffffffffff04831182151516156123be576123bd612340565b5b828202905092915050565b7f4e487b7100000000000000000000000000000000000000000000000000000000600052601260045260246000fd5b600061240382612069565b915061240e83612069565b92508261241e5761241d6123c9565b5b828204905092915050565b60008115159050919050565b61243e81612429565b811461244957600080fd5b50565b60008151905061245b81612435565b92915050565b60006020828403121561247757612476612001565b5b60006124858482850161244c565b91505092915050565b7f4e487b7100000000000000000000000000000000000000000000000000000000600052603260045260246000fd5b600060ff82169050919050565b60006124d5826124bd565b915060ff82036124e8576124e7612340565b5b600182019050919050565b60006124fe8261202b565b9050919050565b61250e816124f3565b811461251957600080fd5b50565b60008151905061252b81612505565b92915050565b60006020828403121561254757612546612001565b5b60006125558482850161251c565b91505092915050565b600082825260208201905092915050565b7f45786368616e67653a206661696c656420746f20627579206465737420746f6b60008201527f656e000000000000000000000000000000000000000000000000000000000000602082015250565b60006125cb60228361255e565b91506125d68261256f565b604082019050919050565b600060208201905081810360008301526125fa816125be565b9050919050565b60006040820190506126166000830185612149565b61262360208301846120f2565b9392505050565b7f45786368616e67653a20596f75206e65656420746f207472616465206174206c60008201527f6561737420736f6d6520746f6b656e7300000000000000000000000000000000602082015250565b600061268660308361255e565b91506126918261262a565b604082019050919050565b600060208201905081810360008301526126b581612679565b9050919050565b60006040820190506126d16000830185612149565b6126de6020830184612149565b9392505050565b7f45786368616e67653a20436865636b2074686520746f6b656e20616c6c6f776160008201527f6e63650000000000000000000000000000000000000000000000000000000000602082015250565b600061274160238361255e565b915061274c826126e5565b604082019050919050565b6000602082019050818103600083015261277081612734565b9050919050565b7f45786368616e67653a2073656e64657220646f65736e2774206861766520656e60008201527f6f75676820546f6b656e73000000000000000000000000000000000000000000602082015250565b60006127d3602b8361255e565b91506127de82612777565b604082019050919050565b60006020820190508181036000830152612802816127c6565b9050919050565b7f45786368616e67653a2063757272656e746c7920746869732045786368616e6760008201527f6520646f65736e74206861766520656e6f7567682064657374696e6174696f6e60208201527f20546f6b656e0000000000000000000000000000000000000000000000000000604082015250565b600061288b60468361255e565b915061289682612809565b606082019050919050565b600060208201905081810360008301526128ba8161287e565b9050919050565b60006060820190506128d66000830186612149565b6128e36020830185612149565b6128f060408301846120f2565b949350505050565b7f45786368616e67653a206661696c656420746f2073656c6c2073726320746f6b60008201527f656e000000000000000000000000000000000000000000000000000000000000602082015250565b600061295460228361255e565b915061295f826128f8565b604082019050919050565b6000602082019050818103600083015261298381612947565b9050919050565b600080fd5b600080fd5b6000601f19601f8301169050919050565b7f4e487b7100000000000000000000000000000000000000000000000000000000600052604160045260246000fd5b6129dd82612994565b810181811067ffffffffffffffff821117156129fc576129fb6129a5565b5b80604052505050565b6000612a0f611ff7565b9050612a1b82826129d4565b919050565b600067ffffffffffffffff821115612a3b57612a3a6129a5565b5b612a4482612994565b9050602081019050919050565b60005b83811015612a6f578082015181840152602081019050612a54565b83811115612a7e576000848401525b50505050565b6000612a97612a9284612a20565b612a05565b905082815260208101848484011115612ab357612ab261298f565b5b612abe848285612a51565b509392505050565b600082601f830112612adb57612ada61298a565b5b8151612aeb848260208601612a84565b91505092915050565b600060208284031215612b0a57612b09612001565b5b600082015167ffffffffffffffff811115612b2857612b27612006565b5b612b3484828501612ac6565b91505092915050565b7f4e487b7100000000000000000000000000000000000000000000000000000000600052602260045260246000fd5b60006002820490506001821680612b8457607f821691505b602082108103612b9757612b96612b3d565b5b50919050565b6000612ba882612069565b9150612bb383612069565b925082821015612bc657612bc5612340565b5b828203905092915050565b6000612bdc82612069565b9150612be783612069565b9250827fffffffffffffffffffffffffffffffffffffffffffffffffffffffffffffffff03821115612c1c57612c1b612340565b5b828201905092915050565b6000612c3282612069565b91507fffffffffffffffffffffffffffffffffffffffffffffffffffffffffffffffff8203612c6457612c63612340565b5b600182019050919050565b7f4e487b7100000000000000000000000000000000000000000000000000000000600052603160045260246000fd5b7f64732d6d6174682d6d756c2d6f766572666c6f77000000000000000000000000600082015250565b6000612cd460148361255e565b9150612cdf82612c9e565b602082019050919050565b60006020820190508181036000830152612d0381612cc7565b905091905056fea264697066735822122033bbbe1a9b14c09adb66f838b00ed2bcbb56738d37ce50ab20f0d47f856307ea64736f6c634300080d0033",
  "immutableReferences": {},
  "source": "// SPDX-License-Identifier: MIT\r\npragma solidity ^0.8.0;\r\n\r\nimport \"./Reserve.sol\";\r\nimport \"./IERC20.sol\";\r\n\r\ncontract Exchange {\r\n \r\n    mapping(address => address) token_reserve_map;\r\n    address[] tokenAddresses;\r\n    string[] tokenSymbols;\r\n    string[] tokenNames;\r\n    address public owner;\r\n\r\n    modifier onlyOwner() {\r\n        require(msg.sender == owner);\r\n        _;\r\n    }\r\n\r\n    constructor() {\r\n        owner = msg.sender;\r\n    }\r\n\r\n    receive() external payable {\r\n    }\r\n\r\n    function checkEthBalance() public view returns(uint256){\r\n        return (payable(address(this))).balance;\r\n    }\r\n\r\n    function getListOfSupportedTokens() public view returns (address[] memory) {\r\n        return tokenAddresses;\r\n    }\r\n\r\n    function getExchangeRate(address srcToken, address destToken, uint256 amount) public view returns (uint256) {\r\n        uint256 sourceRate = 1;\r\n        if (srcToken != address(0)) {\r\n            sourceRate = Reserve(token_reserve_map[srcToken]).rate();\r\n        }\r\n\r\n        uint256 destinationRate = 1;\r\n        if (destToken != address(0)) {\r\n            destinationRate = Reserve(token_reserve_map[destToken]).rate();\r\n        }\r\n\r\n        return (amount * destinationRate) / sourceRate;\r\n    }\r\n\r\n    function exchange(address srcTokenAddress, address destTokenAddress, uint256 srcAmount) public returns (uint256) {\r\n        Reserve srcReserve = Reserve(token_reserve_map[srcTokenAddress]);\r\n        Reserve destReserve = Reserve(token_reserve_map[destTokenAddress]);\r\n        BasicToken srcToken = srcReserve.token();\r\n        BasicToken destToken = destReserve.token();\r\n\r\n        require(srcAmount > 0, \"Exchange: You need to trade at least some tokens\");\r\n        require(srcToken.allowance(msg.sender, address(this)) >= srcAmount, \"Exchange: Check the token allowance\");\r\n\r\n        uint256 exchangeAmount = getExchangeRate(srcTokenAddress, destTokenAddress, srcAmount);\r\n\r\n        require(srcToken.balanceOf(msg.sender) >= srcAmount, \"Exchange: sender doesn't have enough Tokens\");\r\n        require(destToken.balanceOf(address(this)) >= exchangeAmount, \"Exchange: currently this Exchange doesnt have enough destination Token\");\r\n\r\n        srcToken.transferFrom(msg.sender, address(this), srcAmount);\r\n\r\n        destToken.transfer(msg.sender, exchangeAmount);\r\n\r\n        return exchangeAmount;\r\n    }\r\n\r\n    function exchangeEthToToken(address destTokenAddress) public payable returns (uint256) {\r\n        Reserve destReserve = Reserve(token_reserve_map[destTokenAddress]);\r\n        BasicToken destToken = destReserve.token();\r\n\r\n        require(destReserve.buy{value: msg.value}(), \"Exchange: failed to buy dest token\");\r\n        \r\n        uint256 exchangeAmount = mul(msg.value, destReserve.rate());\r\n\r\n        destToken.transfer(msg.sender, exchangeAmount);\r\n\r\n        return exchangeAmount;\r\n    }\r\n\r\n    function exchangeTokenToEth(address srcTokenAddress, uint256 amount) public returns (uint256) {\r\n        Reserve srcReserve = Reserve(token_reserve_map[srcTokenAddress]);\r\n        BasicToken srcToken = srcReserve.token();\r\n\r\n        srcToken.transferFrom(msg.sender, address(this), amount);\r\n        srcToken.approve(token_reserve_map[srcTokenAddress], amount * (1e18));\r\n\r\n        require(srcReserve.sell(amount), \"Exchange: failed to sell src token\");\r\n        payable(msg.sender).transfer(amount / srcReserve.rate());\r\n        return amount / srcReserve.rate();\r\n\r\n    }\r\n\r\n    function addReserve(Reserve newReserve) public onlyOwner {\r\n        // get token\r\n        BasicToken token = newReserve.token();\r\n        address tokenAddress = address(token);\r\n        string memory symbol = token.symbol();\r\n        string memory name = token.name();\r\n        // Validate new token: new token must not exist in tokenAddresses\r\n        for (uint8 index = 0; index < tokenAddresses.length; index++) {\r\n            require(tokenAddress != tokenAddresses[index]);\r\n            require(!equal(token.symbol(), tokenSymbols[index]));\r\n            require(!equal(name, tokenNames[index]));\r\n        }\r\n        // mapping token to reserve\r\n        token_reserve_map[tokenAddress] = address(newReserve);\r\n        // add token to list of tokens (Using in getting list of supported token)\r\n        tokenAddresses.push(tokenAddress);\r\n        tokenSymbols.push(symbol);\r\n        tokenNames.push(name);\r\n    }\r\n\r\n    function buyToken(address tokenAddress) public payable onlyOwner {\r\n        Reserve reserve = Reserve(token_reserve_map[tokenAddress]);\r\n        reserve.buy{value: msg.value}();\r\n    }\r\n\r\n    // Remove reserve\r\n    function removeReserve(address tokenAddress) public onlyOwner {\r\n        for (uint8 index = 0; index < tokenAddresses.length; index++) {\r\n            if (tokenAddress == tokenAddresses[index]) {\r\n                removeReserveData(index);\r\n                break;\r\n            }\r\n        }\r\n        delete token_reserve_map[tokenAddress];\r\n    }\r\n\r\n    function removeReserveData(uint256 index) private {\r\n            // y cc phn t pha sau ln pha trc 1 n v\r\n            for (uint i = index; i < tokenAddresses.length-1; i++){\r\n                tokenAddresses[i] = tokenAddresses[i+1];\r\n                tokenSymbols[i] = tokenSymbols[i+1];\r\n                tokenNames[i] = tokenNames[i+1];\r\n            }\r\n            // Xa b phn t cui cng\r\n            tokenAddresses.pop();\r\n            tokenSymbols.pop();\r\n            tokenNames.pop();\r\n        }\r\n\r\n\r\n    function compare(string memory _a, string memory _b) private pure returns (int) {\r\n        bytes memory a = bytes(_a);\r\n        bytes memory b = bytes(_b);\r\n        uint minLength = a.length;\r\n        if (b.length < minLength) minLength = b.length;\r\n        //@todo unroll the loop into increments of 32 and do full 32 byte comparisons\r\n        for (uint i = 0; i < minLength; i ++)\r\n            if (a[i] < b[i])\r\n                return -1;\r\n            else if (a[i] > b[i])\r\n                return 1;\r\n        if (a.length < b.length)\r\n            return -1;\r\n        else if (a.length > b.length)\r\n            return 1;\r\n        else\r\n            return 0;\r\n    }\r\n    \r\n    function equal(string memory _a, string memory _b) private pure returns (bool) {\r\n        return compare(_a, _b) == 0;\r\n    }\r\n\r\n    function mul(uint256 x, uint256 y) internal pure returns (uint256 z) {\r\n        require(y == 0 || (z = x * y) / y == x, \"ds-math-mul-overflow\");\r\n    }\r\n}\r\n",
  "sourcePath": "C:\\Users\\My Computer\\Desktop\\FunixSwap\\FunixSwap-BE\\contracts\\Exchange.sol",
  "compiler": {
    "name": "solc",
    "version": "0.8.13+commit.abaa5c0e.Emscripten.clang"
  },
  "schemaVersion": "3.4.14",
  "updatedAt": "2023-08-22T01:55:59.424Z",
  "networkType": "ethereum",
  "devdoc": {
    "kind": "dev",
    "methods": {},
    "version": 1
  },
  "userdoc": {
    "kind": "user",
    "methods": {},
    "version": 1
  }
}