{
  "contractName": "Exchange",
  "abi": [
    {
      "inputs": [],
      "stateMutability": "nonpayable",
      "type": "constructor"
    },
    {
      "inputs": [],
      "name": "owner",
      "outputs": [
        {
          "internalType": "address",
          "name": "",
          "type": "address"
        }
      ],
      "stateMutability": "view",
      "type": "function"
    },
    {
      "stateMutability": "payable",
      "type": "receive"
    },
    {
      "inputs": [],
      "name": "checkEthBalance",
      "outputs": [
        {
          "internalType": "uint256",
          "name": "",
          "type": "uint256"
        }
      ],
      "stateMutability": "view",
      "type": "function"
    },
    {
      "inputs": [],
      "name": "getListOfSupportedTokens",
      "outputs": [
        {
          "internalType": "address[]",
          "name": "",
          "type": "address[]"
        }
      ],
      "stateMutability": "view",
      "type": "function"
    },
    {
      "inputs": [
        {
          "internalType": "address",
          "name": "srcToken",
          "type": "address"
        },
        {
          "internalType": "address",
          "name": "destToken",
          "type": "address"
        },
        {
          "internalType": "uint256",
          "name": "amount",
          "type": "uint256"
        }
      ],
      "name": "getExchangeRate",
      "outputs": [
        {
          "internalType": "uint256",
          "name": "",
          "type": "uint256"
        }
      ],
      "stateMutability": "view",
      "type": "function"
    },
    {
      "inputs": [
        {
          "internalType": "address",
          "name": "srcTokenAddress",
          "type": "address"
        },
        {
          "internalType": "address",
          "name": "destTokenAddress",
          "type": "address"
        },
        {
          "internalType": "uint256",
          "name": "srcAmount",
          "type": "uint256"
        }
      ],
      "name": "exchange",
      "outputs": [
        {
          "internalType": "uint256",
          "name": "",
          "type": "uint256"
        }
      ],
      "stateMutability": "nonpayable",
      "type": "function"
    },
    {
      "inputs": [
        {
          "internalType": "address",
          "name": "destTokenAddress",
          "type": "address"
        }
      ],
      "name": "exchangeEthToToken",
      "outputs": [
        {
          "internalType": "uint256",
          "name": "",
          "type": "uint256"
        }
      ],
      "stateMutability": "payable",
      "type": "function"
    },
    {
      "inputs": [
        {
          "internalType": "address",
          "name": "srcTokenAddress",
          "type": "address"
        },
        {
          "internalType": "uint256",
          "name": "amount",
          "type": "uint256"
        }
      ],
      "name": "exchangeTokenToEth",
      "outputs": [
        {
          "internalType": "uint256",
          "name": "",
          "type": "uint256"
        }
      ],
      "stateMutability": "nonpayable",
      "type": "function"
    },
    {
      "inputs": [
        {
          "internalType": "contract Reserve",
          "name": "newReserve",
          "type": "address"
        }
      ],
      "name": "addReserve",
      "outputs": [],
      "stateMutability": "nonpayable",
      "type": "function"
    },
    {
      "inputs": [
        {
          "internalType": "address",
          "name": "tokenAddress",
          "type": "address"
        }
      ],
      "name": "buyToken",
      "outputs": [],
      "stateMutability": "payable",
      "type": "function"
    },
    {
      "inputs": [
        {
          "internalType": "address",
          "name": "tokenAddress",
          "type": "address"
        }
      ],
      "name": "removeReserve",
      "outputs": [],
      "stateMutability": "nonpayable",
      "type": "function"
    }
  ],
  "bytecode": "0x608060405234801561001057600080fd5b5033600460006101000a81548173ffffffffffffffffffffffffffffffffffffffff021916908373ffffffffffffffffffffffffffffffffffffffff160217905550612da3806100616000396000f3fe6080604052600436106100955760003560e01c8063969e375611610059578063969e37561461017e578063df0e81f8146101bb578063ea4e6ded146101f8578063ec1ca07114610223578063f5deae931461024e5761009c565b80636b441d8a146100a15780637e72fb52146100de57806380436fe0146100fa5780638da5cb5b14610123578063915db34e1461014e5761009c565b3661009c57005b600080fd5b3480156100ad57600080fd5b506100c860048036038101906100c39190612094565b610277565b6040516100d591906120f6565b60405180910390f35b6100f860048036038101906100f39190612111565b6104ae565b005b34801561010657600080fd5b50610121600480360381019061011c9190612111565b6105e2565b005b34801561012f57600080fd5b5061013861074c565b604051610145919061214d565b60405180910390f35b61016860048036038101906101639190612111565b610772565b60405161017591906120f6565b60405180910390f35b34801561018a57600080fd5b506101a560048036038101906101a09190612094565b610a00565b6040516101b291906120f6565b60405180910390f35b3480156101c757600080fd5b506101e260048036038101906101dd9190612168565b610f44565b6040516101ef91906120f6565b60405180910390f35b34801561020457600080fd5b5061020d611380565b60405161021a9190612266565b60405180910390f35b34801561022f57600080fd5b5061023861140e565b60405161024591906120f6565b60405180910390f35b34801561025a57600080fd5b50610275600480360381019061027091906122c6565b61142d565b005b60008060019050600073ffffffffffffffffffffffffffffffffffffffff168573ffffffffffffffffffffffffffffffffffffffff1614610382576000808673ffffffffffffffffffffffffffffffffffffffff1673ffffffffffffffffffffffffffffffffffffffff16815260200190815260200160002060009054906101000a900473ffffffffffffffffffffffffffffffffffffffff1673ffffffffffffffffffffffffffffffffffffffff16632c4e722e6040518163ffffffff1660e01b8152600401602060405180830381865afa15801561035b573d6000803e3d6000fd5b505050506040513d601f19601f8201168201806040525081019061037f9190612308565b90505b600060019050600073ffffffffffffffffffffffffffffffffffffffff168573ffffffffffffffffffffffffffffffffffffffff161461048c576000808673ffffffffffffffffffffffffffffffffffffffff1673ffffffffffffffffffffffffffffffffffffffff16815260200190815260200160002060009054906101000a900473ffffffffffffffffffffffffffffffffffffffff1673ffffffffffffffffffffffffffffffffffffffff16632c4e722e6040518163ffffffff1660e01b8152600401602060405180830381865afa158015610465573d6000803e3d6000fd5b505050506040513d601f19601f820116820180604052508101906104899190612308565b90505b8181856104999190612364565b6104a391906123ed565b925050509392505050565b600460009054906101000a900473ffffffffffffffffffffffffffffffffffffffff1673ffffffffffffffffffffffffffffffffffffffff163373ffffffffffffffffffffffffffffffffffffffff161461050857600080fd5b60008060008373ffffffffffffffffffffffffffffffffffffffff1673ffffffffffffffffffffffffffffffffffffffff16815260200190815260200160002060009054906101000a900473ffffffffffffffffffffffffffffffffffffffff1690508073ffffffffffffffffffffffffffffffffffffffff1663a6f2ae3a346040518263ffffffff1660e01b815260040160206040518083038185885af11580156105b8573d6000803e3d6000fd5b50505050506040513d601f19601f820116820180604052508101906105dd9190612456565b505050565b600460009054906101000a900473ffffffffffffffffffffffffffffffffffffffff1673ffffffffffffffffffffffffffffffffffffffff163373ffffffffffffffffffffffffffffffffffffffff161461063c57600080fd5b60005b6001805490508160ff1610156106e75760018160ff168154811061066657610665612483565b5b9060005260206000200160009054906101000a900473ffffffffffffffffffffffffffffffffffffffff1673ffffffffffffffffffffffffffffffffffffffff168273ffffffffffffffffffffffffffffffffffffffff16036106d4576106cf8160ff166119db565b6106e7565b80806106df906124bf565b91505061063f565b506000808273ffffffffffffffffffffffffffffffffffffffff1673ffffffffffffffffffffffffffffffffffffffff16815260200190815260200160002060006101000a81549073ffffffffffffffffffffffffffffffffffffffff021916905550565b600460009054906101000a900473ffffffffffffffffffffffffffffffffffffffff1681565b6000806000808473ffffffffffffffffffffffffffffffffffffffff1673ffffffffffffffffffffffffffffffffffffffff16815260200190815260200160002060009054906101000a900473ffffffffffffffffffffffffffffffffffffffff16905060008173ffffffffffffffffffffffffffffffffffffffff1663fc0c546a6040518163ffffffff1660e01b8152600401602060405180830381865afa158015610823573d6000803e3d6000fd5b505050506040513d601f19601f820116820180604052508101906108479190612526565b90508173ffffffffffffffffffffffffffffffffffffffff1663a6f2ae3a346040518263ffffffff1660e01b815260040160206040518083038185885af1158015610896573d6000803e3d6000fd5b50505050506040513d601f19601f820116820180604052508101906108bb9190612456565b6108fa576040517f08c379a00000000000000000000000000000000000000000000000000000000081526004016108f1906125d6565b60405180910390fd5b6000610974348473ffffffffffffffffffffffffffffffffffffffff16632c4e722e6040518163ffffffff1660e01b8152600401602060405180830381865afa15801561094b573d6000803e3d6000fd5b505050506040513d601f19601f8201168201806040525081019061096f9190612308565b611c1d565b90508173ffffffffffffffffffffffffffffffffffffffff1663a9059cbb33836040518363ffffffff1660e01b81526004016109b19291906125f6565b6020604051808303816000875af11580156109d0573d6000803e3d6000fd5b505050506040513d601f19601f820116820180604052508101906109f49190612456565b50809350505050919050565b6000806000808673ffffffffffffffffffffffffffffffffffffffff1673ffffffffffffffffffffffffffffffffffffffff16815260200190815260200160002060009054906101000a900473ffffffffffffffffffffffffffffffffffffffff16905060008060008673ffffffffffffffffffffffffffffffffffffffff1673ffffffffffffffffffffffffffffffffffffffff16815260200190815260200160002060009054906101000a900473ffffffffffffffffffffffffffffffffffffffff16905060008273ffffffffffffffffffffffffffffffffffffffff1663fc0c546a6040518163ffffffff1660e01b8152600401602060405180830381865afa158015610b14573d6000803e3d6000fd5b505050506040513d601f19601f82011682018060405250810190610b389190612526565b905060008273ffffffffffffffffffffffffffffffffffffffff1663fc0c546a6040518163ffffffff1660e01b8152600401602060405180830381865afa158015610b87573d6000803e3d6000fd5b505050506040513d601f19601f82011682018060405250810190610bab9190612526565b905060008611610bf0576040517f08c379a0000000000000000000000000000000000000000000000000000000008152600401610be790612691565b60405180910390fd5b858273ffffffffffffffffffffffffffffffffffffffff1663dd62ed3e33306040518363ffffffff1660e01b8152600401610c2c9291906126b1565b602060405180830381865afa158015610c49573d6000803e3d6000fd5b505050506040513d601f19601f82011682018060405250810190610c6d9190612308565b1015610cae576040517f08c379a0000000000000000000000000000000000000000000000000000000008152600401610ca59061274c565b60405180910390fd5b6000610cbb898989610277565b9050868373ffffffffffffffffffffffffffffffffffffffff166370a08231336040518263ffffffff1660e01b8152600401610cf7919061214d565b602060405180830381865afa158015610d14573d6000803e3d6000fd5b505050506040513d601f19601f82011682018060405250810190610d389190612308565b1015610d79576040517f08c379a0000000000000000000000000000000000000000000000000000000008152600401610d70906127de565b60405180910390fd5b808273ffffffffffffffffffffffffffffffffffffffff166370a08231306040518263ffffffff1660e01b8152600401610db3919061214d565b602060405180830381865afa158015610dd0573d6000803e3d6000fd5b505050506040513d601f19601f82011682018060405250810190610df49190612308565b1015610e35576040517f08c379a0000000000000000000000000000000000000000000000000000000008152600401610e2c90612896565b60405180910390fd5b8273ffffffffffffffffffffffffffffffffffffffff166323b872dd33308a6040518463ffffffff1660e01b8152600401610e72939291906128b6565b6020604051808303816000875af1158015610e91573d6000803e3d6000fd5b505050506040513d601f19601f82011682018060405250810190610eb59190612456565b508173ffffffffffffffffffffffffffffffffffffffff1663a9059cbb33836040518363ffffffff1660e01b8152600401610ef19291906125f6565b6020604051808303816000875af1158015610f10573d6000803e3d6000fd5b505050506040513d601f19601f82011682018060405250810190610f349190612456565b5080955050505050509392505050565b6000806000808573ffffffffffffffffffffffffffffffffffffffff1673ffffffffffffffffffffffffffffffffffffffff16815260200190815260200160002060009054906101000a900473ffffffffffffffffffffffffffffffffffffffff16905060008173ffffffffffffffffffffffffffffffffffffffff1663fc0c546a6040518163ffffffff1660e01b8152600401602060405180830381865afa158015610ff5573d6000803e3d6000fd5b505050506040513d601f19601f820116820180604052508101906110199190612526565b90508073ffffffffffffffffffffffffffffffffffffffff166323b872dd3330876040518463ffffffff1660e01b8152600401611058939291906128b6565b6020604051808303816000875af1158015611077573d6000803e3d6000fd5b505050506040513d601f19601f8201168201806040525081019061109b9190612456565b508073ffffffffffffffffffffffffffffffffffffffff1663095ea7b36000808873ffffffffffffffffffffffffffffffffffffffff1673ffffffffffffffffffffffffffffffffffffffff16815260200190815260200160002060009054906101000a900473ffffffffffffffffffffffffffffffffffffffff16678ac7230489e800006040518363ffffffff1660e01b815260040161113d929190612932565b6020604051808303816000875af115801561115c573d6000803e3d6000fd5b505050506040513d601f19601f820116820180604052508101906111809190612456565b508173ffffffffffffffffffffffffffffffffffffffff1663e4849b32856040518263ffffffff1660e01b81526004016111ba91906120f6565b6020604051808303816000875af11580156111d9573d6000803e3d6000fd5b505050506040513d601f19601f820116820180604052508101906111fd9190612456565b61123c576040517f08c379a0000000000000000000000000000000000000000000000000000000008152600401611233906129cd565b60405180910390fd5b3373ffffffffffffffffffffffffffffffffffffffff166108fc8373ffffffffffffffffffffffffffffffffffffffff16632c4e722e6040518163ffffffff1660e01b8152600401602060405180830381865afa1580156112a1573d6000803e3d6000fd5b505050506040513d601f19601f820116820180604052508101906112c59190612308565b866112d091906123ed565b9081150290604051600060405180830381858888f193505050501580156112fb573d6000803e3d6000fd5b508173ffffffffffffffffffffffffffffffffffffffff16632c4e722e6040518163ffffffff1660e01b8152600401602060405180830381865afa158015611347573d6000803e3d6000fd5b505050506040513d601f19601f8201168201806040525081019061136b9190612308565b8461137691906123ed565b9250505092915050565b6060600180548060200260200160405190810160405280929190818152602001828054801561140457602002820191906000526020600020905b8160009054906101000a900473ffffffffffffffffffffffffffffffffffffffff1673ffffffffffffffffffffffffffffffffffffffff16815260200190600101908083116113ba575b5050505050905090565b60003073ffffffffffffffffffffffffffffffffffffffff1631905090565b600460009054906101000a900473ffffffffffffffffffffffffffffffffffffffff1673ffffffffffffffffffffffffffffffffffffffff163373ffffffffffffffffffffffffffffffffffffffff161461148757600080fd5b60008173ffffffffffffffffffffffffffffffffffffffff1663fc0c546a6040518163ffffffff1660e01b8152600401602060405180830381865afa1580156114d4573d6000803e3d6000fd5b505050506040513d601f19601f820116820180604052508101906114f89190612526565b9050600081905060008273ffffffffffffffffffffffffffffffffffffffff166395d89b416040518163ffffffff1660e01b8152600401600060405180830381865afa15801561154c573d6000803e3d6000fd5b505050506040513d6000823e3d601f19601f820116820180604052508101906115759190612b57565b905060008373ffffffffffffffffffffffffffffffffffffffff166306fdde036040518163ffffffff1660e01b8152600401600060405180830381865afa1580156115c4573d6000803e3d6000fd5b505050506040513d6000823e3d601f19601f820116820180604052508101906115ed9190612b57565b905060005b6001805490508160ff16101561187b5760018160ff168154811061161957611618612483565b5b9060005260206000200160009054906101000a900473ffffffffffffffffffffffffffffffffffffffff1673ffffffffffffffffffffffffffffffffffffffff168473ffffffffffffffffffffffffffffffffffffffff160361167b57600080fd5b6117a18573ffffffffffffffffffffffffffffffffffffffff166395d89b416040518163ffffffff1660e01b8152600401600060405180830381865afa1580156116c9573d6000803e3d6000fd5b505050506040513d6000823e3d601f19601f820116820180604052508101906116f29190612b57565b60028360ff168154811061170957611708612483565b5b90600052602060002001805461171e90612bcf565b80601f016020809104026020016040519081016040528092919081815260200182805461174a90612bcf565b80156117975780601f1061176c57610100808354040283529160200191611797565b820191906000526020600020905b81548152906001019060200180831161177a57829003601f168201915b5050505050611c8a565b156117ab57600080fd5b61185e8260038360ff16815481106117c6576117c5612483565b5b9060005260206000200180546117db90612bcf565b80601f016020809104026020016040519081016040528092919081815260200182805461180790612bcf565b80156118545780601f1061182957610100808354040283529160200191611854565b820191906000526020600020905b81548152906001019060200180831161183757829003601f168201915b5050505050611c8a565b1561186857600080fd5b8080611873906124bf565b9150506115f2565b50846000808573ffffffffffffffffffffffffffffffffffffffff1673ffffffffffffffffffffffffffffffffffffffff16815260200190815260200160002060006101000a81548173ffffffffffffffffffffffffffffffffffffffff021916908373ffffffffffffffffffffffffffffffffffffffff1602179055506001839080600181540180825580915050600190039060005260206000200160009091909190916101000a81548173ffffffffffffffffffffffffffffffffffffffff021916908373ffffffffffffffffffffffffffffffffffffffff160217905550600282908060018154018082558091505060019003906000526020600020016000909190919091509080519060200190611997929190611e7c565b506003819080600181540180825580915050600190039060005260206000200160009091909190915090805190602001906119d3929190611e7c565b505050505050565b60008190505b600180805490506119f29190612c00565b811015611b725760018082611a079190612c34565b81548110611a1857611a17612483565b5b9060005260206000200160009054906101000a900473ffffffffffffffffffffffffffffffffffffffff1660018281548110611a5757611a56612483565b5b9060005260206000200160006101000a81548173ffffffffffffffffffffffffffffffffffffffff021916908373ffffffffffffffffffffffffffffffffffffffff1602179055506002600182611aae9190612c34565b81548110611abf57611abe612483565b5b9060005260206000200160028281548110611add57611adc612483565b5b90600052602060002001908054611af390612bcf565b611afe929190611f02565b506003600182611b0e9190612c34565b81548110611b1f57611b1e612483565b5b9060005260206000200160038281548110611b3d57611b3c612483565b5b90600052602060002001908054611b5390612bcf565b611b5e929190611f02565b508080611b6a90612c8a565b9150506119e1565b506001805480611b8557611b84612cd2565b5b6001900381819060005260206000200160006101000a81549073ffffffffffffffffffffffffffffffffffffffff021916905590556002805480611bcc57611bcb612cd2565b5b600190038181906000526020600020016000611be89190611f8f565b90556003805480611bfc57611bfb612cd2565b5b600190038181906000526020600020016000611c189190611f8f565b905550565b600080821480611c45575082828385611c369190612364565b925082611c4391906123ed565b145b611c84576040517f08c379a0000000000000000000000000000000000000000000000000000000008152600401611c7b90612d4d565b60405180910390fd5b92915050565b600080611c978484611ca0565b14905092915050565b60008083905060008390506000825190508082511015611cbf57815190505b60005b81811015611e2257828181518110611cdd57611cdc612483565b5b602001015160f81c60f81b7effffffffffffffffffffffffffffffffffffffffffffffffffffffffffffff1916848281518110611d1d57611d1c612483565b5b602001015160f81c60f81b7effffffffffffffffffffffffffffffffffffffffffffffffffffffffffffff19161015611d7c577fffffffffffffffffffffffffffffffffffffffffffffffffffffffffffffffff945050505050611e76565b828181518110611d8f57611d8e612483565b5b602001015160f81c60f81b7effffffffffffffffffffffffffffffffffffffffffffffffffffffffffffff1916848281518110611dcf57611dce612483565b5b602001015160f81c60f81b7effffffffffffffffffffffffffffffffffffffffffffffffffffffffffffff19161115611e0f576001945050505050611e76565b8080611e1a90612c8a565b915050611cc2565b50815183511015611e58577fffffffffffffffffffffffffffffffffffffffffffffffffffffffffffffffff9350505050611e76565b815183511115611e6e5760019350505050611e76565b600093505050505b92915050565b828054611e8890612bcf565b90600052602060002090601f016020900481019282611eaa5760008555611ef1565b82601f10611ec357805160ff1916838001178555611ef1565b82800160010185558215611ef1579182015b82811115611ef0578251825591602001919060010190611ed5565b5b509050611efe9190611fcf565b5090565b828054611f0e90612bcf565b90600052602060002090601f016020900481019282611f305760008555611f7e565b82601f10611f415780548555611f7e565b82800160010185558215611f7e57600052602060002091601f016020900482015b82811115611f7d578254825591600101919060010190611f62565b5b509050611f8b9190611fcf565b5090565b508054611f9b90612bcf565b6000825580601f10611fad5750611fcc565b601f016020900490600052602060002090810190611fcb9190611fcf565b5b50565b5b80821115611fe8576000816000905550600101611fd0565b5090565b6000604051905090565b600080fd5b600080fd5b600073ffffffffffffffffffffffffffffffffffffffff82169050919050565b600061202b82612000565b9050919050565b61203b81612020565b811461204657600080fd5b50565b60008135905061205881612032565b92915050565b6000819050919050565b6120718161205e565b811461207c57600080fd5b50565b60008135905061208e81612068565b92915050565b6000806000606084860312156120ad576120ac611ff6565b5b60006120bb86828701612049565b93505060206120cc86828701612049565b92505060406120dd8682870161207f565b9150509250925092565b6120f08161205e565b82525050565b600060208201905061210b60008301846120e7565b92915050565b60006020828403121561212757612126611ff6565b5b600061213584828501612049565b91505092915050565b61214781612020565b82525050565b6000602082019050612162600083018461213e565b92915050565b6000806040838503121561217f5761217e611ff6565b5b600061218d85828601612049565b925050602061219e8582860161207f565b9150509250929050565b600081519050919050565b600082825260208201905092915050565b6000819050602082019050919050565b6121dd81612020565b82525050565b60006121ef83836121d4565b60208301905092915050565b6000602082019050919050565b6000612213826121a8565b61221d81856121b3565b9350612228836121c4565b8060005b8381101561225957815161224088826121e3565b975061224b836121fb565b92505060018101905061222c565b5085935050505092915050565b600060208201905081810360008301526122808184612208565b905092915050565b600061229382612020565b9050919050565b6122a381612288565b81146122ae57600080fd5b50565b6000813590506122c08161229a565b92915050565b6000602082840312156122dc576122db611ff6565b5b60006122ea848285016122b1565b91505092915050565b60008151905061230281612068565b92915050565b60006020828403121561231e5761231d611ff6565b5b600061232c848285016122f3565b91505092915050565b7f4e487b7100000000000000000000000000000000000000000000000000000000600052601160045260246000fd5b600061236f8261205e565b915061237a8361205e565b9250817fffffffffffffffffffffffffffffffffffffffffffffffffffffffffffffffff04831182151516156123b3576123b2612335565b5b828202905092915050565b7f4e487b7100000000000000000000000000000000000000000000000000000000600052601260045260246000fd5b60006123f88261205e565b91506124038361205e565b925082612413576124126123be565b5b828204905092915050565b60008115159050919050565b6124338161241e565b811461243e57600080fd5b50565b6000815190506124508161242a565b92915050565b60006020828403121561246c5761246b611ff6565b5b600061247a84828501612441565b91505092915050565b7f4e487b7100000000000000000000000000000000000000000000000000000000600052603260045260246000fd5b600060ff82169050919050565b60006124ca826124b2565b915060ff82036124dd576124dc612335565b5b600182019050919050565b60006124f382612020565b9050919050565b612503816124e8565b811461250e57600080fd5b50565b600081519050612520816124fa565b92915050565b60006020828403121561253c5761253b611ff6565b5b600061254a84828501612511565b91505092915050565b600082825260208201905092915050565b7f45786368616e67653a206661696c656420746f20627579206465737420746f6b60008201527f656e000000000000000000000000000000000000000000000000000000000000602082015250565b60006125c0602283612553565b91506125cb82612564565b604082019050919050565b600060208201905081810360008301526125ef816125b3565b9050919050565b600060408201905061260b600083018561213e565b61261860208301846120e7565b9392505050565b7f45786368616e67653a20596f75206e65656420746f207472616465206174206c60008201527f6561737420736f6d6520746f6b656e7300000000000000000000000000000000602082015250565b600061267b603083612553565b91506126868261261f565b604082019050919050565b600060208201905081810360008301526126aa8161266e565b9050919050565b60006040820190506126c6600083018561213e565b6126d3602083018461213e565b9392505050565b7f45786368616e67653a20436865636b2074686520746f6b656e20616c6c6f776160008201527f6e63650000000000000000000000000000000000000000000000000000000000602082015250565b6000612736602383612553565b9150612741826126da565b604082019050919050565b6000602082019050818103600083015261276581612729565b9050919050565b7f45786368616e67653a2073656e64657220646f65736e2774206861766520656e60008201527f6f75676820546f6b656e73000000000000000000000000000000000000000000602082015250565b60006127c8602b83612553565b91506127d38261276c565b604082019050919050565b600060208201905081810360008301526127f7816127bb565b9050919050565b7f45786368616e67653a2063757272656e746c7920746869732045786368616e6760008201527f6520646f65736e74206861766520656e6f7567682064657374696e6174696f6e60208201527f20546f6b656e0000000000000000000000000000000000000000000000000000604082015250565b6000612880604683612553565b915061288b826127fe565b606082019050919050565b600060208201905081810360008301526128af81612873565b9050919050565b60006060820190506128cb600083018661213e565b6128d8602083018561213e565b6128e560408301846120e7565b949350505050565b6000819050919050565b6000819050919050565b600061291c612917612912846128ed565b6128f7565b61205e565b9050919050565b61292c81612901565b82525050565b6000604082019050612947600083018561213e565b6129546020830184612923565b9392505050565b7f45786368616e67653a206661696c656420746f2073656c6c2073726320746f6b60008201527f656e000000000000000000000000000000000000000000000000000000000000602082015250565b60006129b7602283612553565b91506129c28261295b565b604082019050919050565b600060208201905081810360008301526129e6816129aa565b9050919050565b600080fd5b600080fd5b6000601f19601f8301169050919050565b7f4e487b7100000000000000000000000000000000000000000000000000000000600052604160045260246000fd5b612a40826129f7565b810181811067ffffffffffffffff82111715612a5f57612a5e612a08565b5b80604052505050565b6000612a72611fec565b9050612a7e8282612a37565b919050565b600067ffffffffffffffff821115612a9e57612a9d612a08565b5b612aa7826129f7565b9050602081019050919050565b60005b83811015612ad2578082015181840152602081019050612ab7565b83811115612ae1576000848401525b50505050565b6000612afa612af584612a83565b612a68565b905082815260208101848484011115612b1657612b156129f2565b5b612b21848285612ab4565b509392505050565b600082601f830112612b3e57612b3d6129ed565b5b8151612b4e848260208601612ae7565b91505092915050565b600060208284031215612b6d57612b6c611ff6565b5b600082015167ffffffffffffffff811115612b8b57612b8a611ffb565b5b612b9784828501612b29565b91505092915050565b7f4e487b7100000000000000000000000000000000000000000000000000000000600052602260045260246000fd5b60006002820490506001821680612be757607f821691505b602082108103612bfa57612bf9612ba0565b5b50919050565b6000612c0b8261205e565b9150612c168361205e565b925082821015612c2957612c28612335565b5b828203905092915050565b6000612c3f8261205e565b9150612c4a8361205e565b9250827fffffffffffffffffffffffffffffffffffffffffffffffffffffffffffffffff03821115612c7f57612c7e612335565b5b828201905092915050565b6000612c958261205e565b91507fffffffffffffffffffffffffffffffffffffffffffffffffffffffffffffffff8203612cc757612cc6612335565b5b600182019050919050565b7f4e487b7100000000000000000000000000000000000000000000000000000000600052603160045260246000fd5b7f64732d6d6174682d6d756c2d6f766572666c6f77000000000000000000000000600082015250565b6000612d37601483612553565b9150612d4282612d01565b602082019050919050565b60006020820190508181036000830152612d6681612d2a565b905091905056fea2646970667358221220d35eff91a1924b31b9cc0f8fd1d87bc883d426d63844aa3f02eef15da861300464736f6c634300080d0033",
  "immutableReferences": {},
  "source": "// SPDX-License-Identifier: MIT\r\npragma solidity ^0.8.0;\r\n\r\nimport \"./Reserve.sol\";\r\nimport \"./IERC20.sol\";\r\n\r\ncontract Exchange {\r\n \r\n    mapping(address => address) token_reserve_map;\r\n    address[] tokenAddresses;\r\n    string[] tokenSymbols;\r\n    string[] tokenNames;\r\n    address public owner;\r\n\r\n    modifier onlyOwner() {\r\n        require(msg.sender == owner);\r\n        _;\r\n    }\r\n\r\n    constructor() {\r\n        owner = msg.sender;\r\n    }\r\n\r\n    receive() external payable {\r\n    }\r\n\r\n    function checkEthBalance() public view returns(uint256){\r\n        return (payable(address(this))).balance;\r\n    }\r\n\r\n    function getListOfSupportedTokens() public view returns (address[] memory) {\r\n        return tokenAddresses;\r\n    }\r\n\r\n    function getExchangeRate(\r\n        address srcToken,\r\n        address destToken,\r\n        uint256 amount\r\n    ) public view returns (uint256) {\r\n        uint256 sourceRate = 1;\r\n        if (srcToken != address(0)) {\r\n            sourceRate = Reserve(token_reserve_map[srcToken]).rate();\r\n        }\r\n\r\n        uint256 destinationRate = 1;\r\n        if (destToken != address(0)) {\r\n            destinationRate = Reserve(token_reserve_map[destToken]).rate();\r\n        }\r\n\r\n        return (amount * destinationRate) / sourceRate;\r\n    }\r\n\r\n    function exchange(address srcTokenAddress, address destTokenAddress, uint256 srcAmount) public returns (uint256) {\r\n        Reserve srcReserve = Reserve(token_reserve_map[srcTokenAddress]);\r\n        Reserve destReserve = Reserve(token_reserve_map[destTokenAddress]);\r\n        BasicToken srcToken = srcReserve.token();\r\n        BasicToken destToken = destReserve.token();\r\n\r\n        require(srcAmount > 0, \"Exchange: You need to trade at least some tokens\");\r\n        require(srcToken.allowance(msg.sender, address(this)) >= srcAmount, \"Exchange: Check the token allowance\");\r\n\r\n        uint256 exchangeAmount = getExchangeRate(srcTokenAddress, destTokenAddress, srcAmount);\r\n\r\n        require(srcToken.balanceOf(msg.sender) >= srcAmount, \"Exchange: sender doesn't have enough Tokens\");\r\n        require(destToken.balanceOf(address(this)) >= exchangeAmount, \"Exchange: currently this Exchange doesnt have enough destination Token\");\r\n\r\n        srcToken.transferFrom(msg.sender, address(this), srcAmount);\r\n\r\n        destToken.transfer(msg.sender, exchangeAmount);\r\n\r\n        return exchangeAmount;\r\n    }\r\n\r\n    function exchangeEthToToken(address destTokenAddress) public payable returns (uint256) {\r\n        Reserve destReserve = Reserve(token_reserve_map[destTokenAddress]);\r\n        BasicToken destToken = destReserve.token();\r\n\r\n        require(destReserve.buy{value: msg.value}(), \"Exchange: failed to buy dest token\");\r\n        \r\n\r\n        uint256 exchangeAmount = mul(msg.value, destReserve.rate());\r\n\r\n        destToken.transfer(msg.sender, exchangeAmount);\r\n\r\n        return exchangeAmount;\r\n    }\r\n\r\n    function exchangeTokenToEth(address srcTokenAddress, uint256 amount) public returns (uint256) {\r\n        Reserve srcReserve = Reserve(token_reserve_map[srcTokenAddress]);\r\n        BasicToken srcToken = srcReserve.token();\r\n\r\n        srcToken.transferFrom(msg.sender, address(this), amount);\r\n\r\n        srcToken.approve(token_reserve_map[srcTokenAddress], 10e18);\r\n        require(srcReserve.sell(amount), \"Exchange: failed to sell src token\");\r\n\r\n        payable(msg.sender).transfer(amount / srcReserve.rate());\r\n\r\n        return amount / srcReserve.rate();\r\n    }\r\n\r\n    function addReserve(Reserve newReserve) public onlyOwner {\r\n        // get token\r\n        BasicToken token = newReserve.token();\r\n        address tokenAddress = address(token);\r\n        string memory symbol = token.symbol();\r\n        string memory name = token.name();\r\n\r\n        // Validate new token: new token must not exist in tokenAddresses\r\n        for (uint8 index = 0; index < tokenAddresses.length; index++) {\r\n            require(tokenAddress != tokenAddresses[index]);\r\n            require(!equal(token.symbol(), tokenSymbols[index]));\r\n            require(!equal(name, tokenNames[index]));\r\n        }\r\n        \r\n        // mapping token to reserve\r\n        token_reserve_map[tokenAddress] = address(newReserve);\r\n        // add token to list of tokens (Using in getting list of supported token)\r\n        tokenAddresses.push(tokenAddress);\r\n        tokenSymbols.push(symbol);\r\n        tokenNames.push(name);\r\n    }\r\n\r\n    function buyToken(address tokenAddress) public payable onlyOwner {\r\n        Reserve reserve = Reserve(token_reserve_map[tokenAddress]);\r\n        reserve.buy{value: msg.value}();\r\n    }\r\n\r\n    // // Remove reserve\r\n    function removeReserve(address tokenAddress) public onlyOwner {\r\n        for (uint8 index = 0; index < tokenAddresses.length; index++) {\r\n            if (tokenAddress == tokenAddresses[index]) {\r\n                removeReserveData(index);\r\n                break;\r\n            }\r\n        }\r\n        delete token_reserve_map[tokenAddress];\r\n    }\r\n\r\n    function removeReserveData(uint256 index) private {\r\n            // y cc phn t pha sau ln pha trc 1 n v\r\n            for (uint i = index; i < tokenAddresses.length-1; i++){\r\n                tokenAddresses[i] = tokenAddresses[i+1];\r\n                tokenSymbols[i] = tokenSymbols[i+1];\r\n                tokenNames[i] = tokenNames[i+1];\r\n            }\r\n            // Xa b phn t cui cng\r\n            tokenAddresses.pop();\r\n            tokenSymbols.pop();\r\n            tokenNames.pop();\r\n        }\r\n\r\n\r\n    function compare(string memory _a, string memory _b) private pure returns (int) {\r\n        bytes memory a = bytes(_a);\r\n        bytes memory b = bytes(_b);\r\n        uint minLength = a.length;\r\n        if (b.length < minLength) minLength = b.length;\r\n        //@todo unroll the loop into increments of 32 and do full 32 byte comparisons\r\n        for (uint i = 0; i < minLength; i ++)\r\n            if (a[i] < b[i])\r\n                return -1;\r\n            else if (a[i] > b[i])\r\n                return 1;\r\n        if (a.length < b.length)\r\n            return -1;\r\n        else if (a.length > b.length)\r\n            return 1;\r\n        else\r\n            return 0;\r\n    }\r\n    /// @dev Compares two strings and returns true iff they are equal.\r\n    function equal(string memory _a, string memory _b) private pure returns (bool) {\r\n        return compare(_a, _b) == 0;\r\n    }\r\n    function mul(uint256 x, uint256 y) internal pure returns (uint256 z) {\r\n        require(y == 0 || (z = x * y) / y == x, \"ds-math-mul-overflow\");\r\n    }\r\n}\r\n",
  "sourcePath": "C:\\Users\\My Computer\\Desktop\\FunixSwap\\FunixSwap-BE\\contracts\\Exchange.sol",
  "compiler": {
    "name": "solc",
    "version": "0.8.13+commit.abaa5c0e.Emscripten.clang"
  },
  "schemaVersion": "3.4.14",
  "updatedAt": "2023-08-01T21:56:42.637Z",
  "devdoc": {
    "kind": "dev",
    "methods": {},
    "version": 1
  },
  "userdoc": {
    "kind": "user",
    "methods": {},
    "version": 1
  }
}