{
  "contractName": "Reserve",
  "abi": [
    {
      "inputs": [
        {
          "internalType": "string",
          "name": "_name",
          "type": "string"
        },
        {
          "internalType": "string",
          "name": "_symbol",
          "type": "string"
        },
        {
          "internalType": "uint256",
          "name": "_rate",
          "type": "uint256"
        }
      ],
      "stateMutability": "nonpayable",
      "type": "constructor"
    },
    {
      "anonymous": false,
      "inputs": [
        {
          "indexed": false,
          "internalType": "uint256",
          "name": "amount",
          "type": "uint256"
        }
      ],
      "name": "Bought",
      "type": "event"
    },
    {
      "anonymous": false,
      "inputs": [
        {
          "indexed": false,
          "internalType": "uint256",
          "name": "amount",
          "type": "uint256"
        }
      ],
      "name": "Sold",
      "type": "event"
    },
    {
      "inputs": [],
      "name": "owner",
      "outputs": [
        {
          "internalType": "address",
          "name": "",
          "type": "address"
        }
      ],
      "stateMutability": "view",
      "type": "function"
    },
    {
      "inputs": [],
      "name": "rate",
      "outputs": [
        {
          "internalType": "uint256",
          "name": "",
          "type": "uint256"
        }
      ],
      "stateMutability": "view",
      "type": "function"
    },
    {
      "inputs": [],
      "name": "token",
      "outputs": [
        {
          "internalType": "contract BasicToken",
          "name": "",
          "type": "address"
        }
      ],
      "stateMutability": "view",
      "type": "function"
    },
    {
      "inputs": [],
      "name": "buy",
      "outputs": [
        {
          "internalType": "bool",
          "name": "",
          "type": "bool"
        }
      ],
      "stateMutability": "payable",
      "type": "function"
    },
    {
      "inputs": [
        {
          "internalType": "uint256",
          "name": "amount",
          "type": "uint256"
        }
      ],
      "name": "sell",
      "outputs": [
        {
          "internalType": "bool",
          "name": "",
          "type": "bool"
        }
      ],
      "stateMutability": "nonpayable",
      "type": "function"
    },
    {
      "inputs": [],
      "name": "getTokenAddress",
      "outputs": [
        {
          "internalType": "address",
          "name": "",
          "type": "address"
        }
      ],
      "stateMutability": "view",
      "type": "function"
    },
    {
      "inputs": [
        {
          "internalType": "uint256",
          "name": "newRate",
          "type": "uint256"
        }
      ],
      "name": "setRate",
      "outputs": [],
      "stateMutability": "nonpayable",
      "type": "function"
    }
  ],
  "bytecode": "0x608060405260016002553480156200001657600080fd5b506040516200269f3803806200269f83398181016040528101906200003c9190620002ed565b336000806101000a81548173ffffffffffffffffffffffffffffffffffffffff021916908373ffffffffffffffffffffffffffffffffffffffff16021790555082826040516200008c9062000107565b62000099929190620003e4565b604051809103906000f080158015620000b6573d6000803e3d6000fd5b50600160006101000a81548173ffffffffffffffffffffffffffffffffffffffff021916908373ffffffffffffffffffffffffffffffffffffffff160217905550806002819055505050506200041f565b611491806200120e83390190565b6000604051905090565b600080fd5b600080fd5b600080fd5b600080fd5b6000601f19601f8301169050919050565b7f4e487b7100000000000000000000000000000000000000000000000000000000600052604160045260246000fd5b6200017e8262000133565b810181811067ffffffffffffffff82111715620001a0576200019f62000144565b5b80604052505050565b6000620001b562000115565b9050620001c3828262000173565b919050565b600067ffffffffffffffff821115620001e657620001e562000144565b5b620001f18262000133565b9050602081019050919050565b60005b838110156200021e57808201518184015260208101905062000201565b838111156200022e576000848401525b50505050565b60006200024b6200024584620001c8565b620001a9565b9050828152602081018484840111156200026a57620002696200012e565b5b62000277848285620001fe565b509392505050565b600082601f83011262000297576200029662000129565b5b8151620002a984826020860162000234565b91505092915050565b6000819050919050565b620002c781620002b2565b8114620002d357600080fd5b50565b600081519050620002e781620002bc565b92915050565b6000806000606084860312156200030957620003086200011f565b5b600084015167ffffffffffffffff8111156200032a576200032962000124565b5b62000338868287016200027f565b935050602084015167ffffffffffffffff8111156200035c576200035b62000124565b5b6200036a868287016200027f565b92505060406200037d86828701620002d6565b9150509250925092565b600081519050919050565b600082825260208201905092915050565b6000620003b08262000387565b620003bc818562000392565b9350620003ce818560208601620001fe565b620003d98162000133565b840191505092915050565b60006040820190508181036000830152620004008185620003a3565b90508181036020830152620004168184620003a3565b90509392505050565b610ddf806200042f6000396000f3fe6080604052600436106100705760003560e01c80638da5cb5b1161004e5780638da5cb5b146100f4578063a6f2ae3a1461011f578063e4849b321461013d578063fc0c546a1461017a57610070565b806310fe9ae8146100755780632c4e722e146100a057806334fcf437146100cb575b600080fd5b34801561008157600080fd5b5061008a6101a5565b604051610097919061077a565b60405180910390f35b3480156100ac57600080fd5b506100b56101cf565b6040516100c291906107ae565b60405180910390f35b3480156100d757600080fd5b506100f260048036038101906100ed91906107fa565b6101d5565b005b34801561010057600080fd5b5061010961027a565b604051610116919061077a565b60405180910390f35b61012761029e565b6040516101349190610842565b60405180910390f35b34801561014957600080fd5b50610164600480360381019061015f91906107fa565b6104b2565b6040516101719190610842565b60405180910390f35b34801561018657600080fd5b5061018f610713565b60405161019c91906108bc565b60405180910390f35b6000600160009054906101000a900473ffffffffffffffffffffffffffffffffffffffff16905090565b60025481565b60008054906101000a900473ffffffffffffffffffffffffffffffffffffffff1673ffffffffffffffffffffffffffffffffffffffff163373ffffffffffffffffffffffffffffffffffffffff161461022d57600080fd5b60008111610270576040517f08c379a000000000000000000000000000000000000000000000000000000000815260040161026790610934565b60405180910390fd5b8060028190555050565b60008054906101000a900473ffffffffffffffffffffffffffffffffffffffff1681565b600080600254346102af9190610983565b9050600081116102f4576040517f08c379a00000000000000000000000000000000000000000000000000000000081526004016102eb90610a4f565b60405180910390fd5b600160009054906101000a900473ffffffffffffffffffffffffffffffffffffffff1673ffffffffffffffffffffffffffffffffffffffff166370a08231306040518263ffffffff1660e01b815260040161034f919061077a565b602060405180830381865afa15801561036c573d6000803e3d6000fd5b505050506040513d601f19601f820116820180604052508101906103909190610a84565b8111156103d2576040517f08c379a00000000000000000000000000000000000000000000000000000000081526004016103c990610b23565b60405180910390fd5b600160009054906101000a900473ffffffffffffffffffffffffffffffffffffffff1673ffffffffffffffffffffffffffffffffffffffff1663a9059cbb33836040518363ffffffff1660e01b815260040161042f929190610b43565b6020604051808303816000875af115801561044e573d6000803e3d6000fd5b505050506040513d601f19601f820116820180604052508101906104729190610b98565b507f4e08ba899977cf7d4c2964bce71c6b9a7ef76ee5166a4c1249a1e08016e33ef1816040516104a291906107ae565b60405180910390a1600191505090565b60008082116104f6576040517f08c379a00000000000000000000000000000000000000000000000000000000081526004016104ed90610c37565b60405180910390fd5b6000600160009054906101000a900473ffffffffffffffffffffffffffffffffffffffff1673ffffffffffffffffffffffffffffffffffffffff1663dd62ed3e33306040518363ffffffff1660e01b8152600401610555929190610c57565b602060405180830381865afa158015610572573d6000803e3d6000fd5b505050506040513d601f19601f820116820180604052508101906105969190610a84565b9050828110156105db576040517f08c379a00000000000000000000000000000000000000000000000000000000081526004016105d290610cf2565b60405180910390fd5b600160009054906101000a900473ffffffffffffffffffffffffffffffffffffffff1673ffffffffffffffffffffffffffffffffffffffff166323b872dd3330866040518463ffffffff1660e01b815260040161063a93929190610d12565b6020604051808303816000875af1158015610659573d6000803e3d6000fd5b505050506040513d601f19601f8201168201806040525081019061067d9190610b98565b503373ffffffffffffffffffffffffffffffffffffffff166108fc600254856106a69190610d78565b9081150290604051600060405180830381858888f193505050501580156106d1573d6000803e3d6000fd5b507f92f64ca637d023f354075a4be751b169c1a8a9ccb6d33cdd0cb35205439957278360405161070191906107ae565b60405180910390a16001915050919050565b600160009054906101000a900473ffffffffffffffffffffffffffffffffffffffff1681565b600073ffffffffffffffffffffffffffffffffffffffff82169050919050565b600061076482610739565b9050919050565b61077481610759565b82525050565b600060208201905061078f600083018461076b565b92915050565b6000819050919050565b6107a881610795565b82525050565b60006020820190506107c3600083018461079f565b92915050565b600080fd5b6107d781610795565b81146107e257600080fd5b50565b6000813590506107f4816107ce565b92915050565b6000602082840312156108105761080f6107c9565b5b600061081e848285016107e5565b91505092915050565b60008115159050919050565b61083c81610827565b82525050565b60006020820190506108576000830184610833565b92915050565b6000819050919050565b600061088261087d61087884610739565b61085d565b610739565b9050919050565b600061089482610867565b9050919050565b60006108a682610889565b9050919050565b6108b68161089b565b82525050565b60006020820190506108d160008301846108ad565b92915050565b600082825260208201905092915050565b7f72617465206d7573742067726561746572207468616e20300000000000000000600082015250565b600061091e6018836108d7565b9150610929826108e8565b602082019050919050565b6000602082019050818103600083015261094d81610911565b9050919050565b7f4e487b7100000000000000000000000000000000000000000000000000000000600052601160045260246000fd5b600061098e82610795565b915061099983610795565b9250817fffffffffffffffffffffffffffffffffffffffffffffffffffffffffffffffff04831182151516156109d2576109d1610954565b5b828202905092915050565b7f526573657276653a20596f75206e65656420746f2073656e6420736f6d65206560008201527f7468657200000000000000000000000000000000000000000000000000000000602082015250565b6000610a396024836108d7565b9150610a44826109dd565b604082019050919050565b60006020820190508181036000830152610a6881610a2c565b9050919050565b600081519050610a7e816107ce565b92915050565b600060208284031215610a9a57610a996107c9565b5b6000610aa884828501610a6f565b91505092915050565b7f526573657276653a204e6f7420656e6f75676820746f6b656e7320696e20746860008201527f6520726573657276650000000000000000000000000000000000000000000000602082015250565b6000610b0d6029836108d7565b9150610b1882610ab1565b604082019050919050565b60006020820190508181036000830152610b3c81610b00565b9050919050565b6000604082019050610b58600083018561076b565b610b65602083018461079f565b9392505050565b610b7581610827565b8114610b8057600080fd5b50565b600081519050610b9281610b6c565b92915050565b600060208284031215610bae57610bad6107c9565b5b6000610bbc84828501610b83565b91505092915050565b7f526573657276653a20596f75206e65656420746f2073656c6c206174206c656160008201527f737420736f6d6520746f6b656e73000000000000000000000000000000000000602082015250565b6000610c21602e836108d7565b9150610c2c82610bc5565b604082019050919050565b60006020820190508181036000830152610c5081610c14565b9050919050565b6000604082019050610c6c600083018561076b565b610c79602083018461076b565b9392505050565b7f526573657276653a20436865636b2074686520746f6b656e20616c6c6f77616e60008201527f6365000000000000000000000000000000000000000000000000000000000000602082015250565b6000610cdc6022836108d7565b9150610ce782610c80565b604082019050919050565b60006020820190508181036000830152610d0b81610ccf565b9050919050565b6000606082019050610d27600083018661076b565b610d34602083018561076b565b610d41604083018461079f565b949350505050565b7f4e487b7100000000000000000000000000000000000000000000000000000000600052601260045260246000fd5b6000610d8382610795565b9150610d8e83610795565b925082610d9e57610d9d610d49565b5b82820490509291505056fea2646970667358221220780be35b0e99c456b49a35186770f5f7c6d28e076f8fe3f634f3df35aa2ec1e164736f6c634300080d00336080604052678ac7230489e800006004553480156200001d57600080fd5b506040516200149138038062001491833981810160405281019062000043919062000310565b81600090805190602001906200005b929190620000c3565b50806001908051906020019062000074929190620000c3565b50600454600260003373ffffffffffffffffffffffffffffffffffffffff1673ffffffffffffffffffffffffffffffffffffffff168152602001908152602001600020819055505050620003f9565b828054620000d190620003c4565b90600052602060002090601f016020900481019282620000f5576000855562000141565b82601f106200011057805160ff191683800117855562000141565b8280016001018555821562000141579182015b828111156200014057825182559160200191906001019062000123565b5b50905062000150919062000154565b5090565b5b808211156200016f57600081600090555060010162000155565b5090565b6000604051905090565b600080fd5b600080fd5b600080fd5b600080fd5b6000601f19601f8301169050919050565b7f4e487b7100000000000000000000000000000000000000000000000000000000600052604160045260246000fd5b620001dc8262000191565b810181811067ffffffffffffffff82111715620001fe57620001fd620001a2565b5b80604052505050565b60006200021362000173565b9050620002218282620001d1565b919050565b600067ffffffffffffffff821115620002445762000243620001a2565b5b6200024f8262000191565b9050602081019050919050565b60005b838110156200027c5780820151818401526020810190506200025f565b838111156200028c576000848401525b50505050565b6000620002a9620002a38462000226565b62000207565b905082815260208101848484011115620002c857620002c76200018c565b5b620002d58482856200025c565b509392505050565b600082601f830112620002f557620002f462000187565b5b81516200030784826020860162000292565b91505092915050565b600080604083850312156200032a57620003296200017d565b5b600083015167ffffffffffffffff8111156200034b576200034a62000182565b5b6200035985828601620002dd565b925050602083015167ffffffffffffffff8111156200037d576200037c62000182565b5b6200038b85828601620002dd565b9150509250929050565b7f4e487b7100000000000000000000000000000000000000000000000000000000600052602260045260246000fd5b60006002820490506001821680620003dd57607f821691505b602082108103620003f357620003f262000395565b5b50919050565b61108880620004096000396000f3fe608060405234801561001057600080fd5b50600436106100a95760003560e01c8063313ce56711610071578063313ce5671461017a5780635c6581651461019857806370a08231146101c857806395d89b41146101f8578063a9059cbb14610216578063dd62ed3e14610246576100a9565b806306fdde03146100ae578063095ea7b3146100cc57806318160ddd146100fc57806323b872dd1461011a57806327e235e31461014a575b600080fd5b6100b6610276565b6040516100c39190610be9565b60405180910390f35b6100e660048036038101906100e19190610ca4565b610304565b6040516100f39190610cff565b60405180910390f35b6101046103f6565b6040516101119190610d29565b60405180910390f35b610134600480360381019061012f9190610d44565b610400565b6040516101419190610cff565b60405180910390f35b610164600480360381019061015f9190610d97565b6107d7565b6040516101719190610d29565b60405180910390f35b6101826107ef565b60405161018f9190610de0565b60405180910390f35b6101b260048036038101906101ad9190610dfb565b6107f4565b6040516101bf9190610d29565b60405180910390f35b6101e260048036038101906101dd9190610d97565b610819565b6040516101ef9190610d29565b60405180910390f35b610200610862565b60405161020d9190610be9565b60405180910390f35b610230600480360381019061022b9190610ca4565b6108f0565b60405161023d9190610cff565b60405180910390f35b610260600480360381019061025b9190610dfb565b610ac9565b60405161026d9190610d29565b60405180910390f35b6000805461028390610e6a565b80601f01602080910402602001604051908101604052809291908181526020018280546102af90610e6a565b80156102fc5780601f106102d1576101008083540402835291602001916102fc565b820191906000526020600020905b8154815290600101906020018083116102df57829003601f168201915b505050505081565b600081600360003373ffffffffffffffffffffffffffffffffffffffff1673ffffffffffffffffffffffffffffffffffffffff16815260200190815260200160002060008573ffffffffffffffffffffffffffffffffffffffff1673ffffffffffffffffffffffffffffffffffffffff168152602001908152602001600020819055508273ffffffffffffffffffffffffffffffffffffffff163373ffffffffffffffffffffffffffffffffffffffff167f8c5be1e5ebec7d5bd14f71427d1e84f3dd0314c0f7b2291e5b200ac8c7c3b925846040516103e49190610d29565b60405180910390a36001905092915050565b6000600454905090565b6000600260008573ffffffffffffffffffffffffffffffffffffffff1673ffffffffffffffffffffffffffffffffffffffff16815260200190815260200160002054821115610484576040517f08c379a000000000000000000000000000000000000000000000000000000000815260040161047b90610f0d565b60405180910390fd5b600360008573ffffffffffffffffffffffffffffffffffffffff1673ffffffffffffffffffffffffffffffffffffffff16815260200190815260200160002060003373ffffffffffffffffffffffffffffffffffffffff1673ffffffffffffffffffffffffffffffffffffffff16815260200190815260200160002054821115610543576040517f08c379a000000000000000000000000000000000000000000000000000000000815260040161053a90610f79565b60405180910390fd5b81600260008673ffffffffffffffffffffffffffffffffffffffff1673ffffffffffffffffffffffffffffffffffffffff1681526020019081526020016000205461058e9190610fc8565b600260008673ffffffffffffffffffffffffffffffffffffffff1673ffffffffffffffffffffffffffffffffffffffff1681526020019081526020016000208190555081600360008673ffffffffffffffffffffffffffffffffffffffff1673ffffffffffffffffffffffffffffffffffffffff16815260200190815260200160002060003373ffffffffffffffffffffffffffffffffffffffff1673ffffffffffffffffffffffffffffffffffffffff168152602001908152602001600020546106599190610fc8565b600360008673ffffffffffffffffffffffffffffffffffffffff1673ffffffffffffffffffffffffffffffffffffffff16815260200190815260200160002060003373ffffffffffffffffffffffffffffffffffffffff1673ffffffffffffffffffffffffffffffffffffffff1681526020019081526020016000208190555081600260008573ffffffffffffffffffffffffffffffffffffffff1673ffffffffffffffffffffffffffffffffffffffff168152602001908152602001600020546107249190610ffc565b600260008573ffffffffffffffffffffffffffffffffffffffff1673ffffffffffffffffffffffffffffffffffffffff168152602001908152602001600020819055508273ffffffffffffffffffffffffffffffffffffffff168473ffffffffffffffffffffffffffffffffffffffff167fddf252ad1be2c89b69c2b068fc378daa952ba7f163c4a11628f55a4df523b3ef846040516107c49190610d29565b60405180910390a3600190509392505050565b60026020528060005260406000206000915090505481565b601281565b6003602052816000526040600020602052806000526040600020600091509150505481565b6000600260008373ffffffffffffffffffffffffffffffffffffffff1673ffffffffffffffffffffffffffffffffffffffff168152602001908152602001600020549050919050565b6001805461086f90610e6a565b80601f016020809104026020016040519081016040528092919081815260200182805461089b90610e6a565b80156108e85780601f106108bd576101008083540402835291602001916108e8565b820191906000526020600020905b8154815290600101906020018083116108cb57829003601f168201915b505050505081565b6000600260003373ffffffffffffffffffffffffffffffffffffffff1673ffffffffffffffffffffffffffffffffffffffff1681526020019081526020016000205482111561093e57600080fd5b81600260003373ffffffffffffffffffffffffffffffffffffffff1673ffffffffffffffffffffffffffffffffffffffff168152602001908152602001600020546109899190610fc8565b600260003373ffffffffffffffffffffffffffffffffffffffff1673ffffffffffffffffffffffffffffffffffffffff1681526020019081526020016000208190555081600260008573ffffffffffffffffffffffffffffffffffffffff1673ffffffffffffffffffffffffffffffffffffffff16815260200190815260200160002054610a179190610ffc565b600260008573ffffffffffffffffffffffffffffffffffffffff1673ffffffffffffffffffffffffffffffffffffffff168152602001908152602001600020819055508273ffffffffffffffffffffffffffffffffffffffff163373ffffffffffffffffffffffffffffffffffffffff167fddf252ad1be2c89b69c2b068fc378daa952ba7f163c4a11628f55a4df523b3ef84604051610ab79190610d29565b60405180910390a36001905092915050565b6000600360008473ffffffffffffffffffffffffffffffffffffffff1673ffffffffffffffffffffffffffffffffffffffff16815260200190815260200160002060008373ffffffffffffffffffffffffffffffffffffffff1673ffffffffffffffffffffffffffffffffffffffff16815260200190815260200160002054905092915050565b600081519050919050565b600082825260208201905092915050565b60005b83811015610b8a578082015181840152602081019050610b6f565b83811115610b99576000848401525b50505050565b6000601f19601f8301169050919050565b6000610bbb82610b50565b610bc58185610b5b565b9350610bd5818560208601610b6c565b610bde81610b9f565b840191505092915050565b60006020820190508181036000830152610c038184610bb0565b905092915050565b600080fd5b600073ffffffffffffffffffffffffffffffffffffffff82169050919050565b6000610c3b82610c10565b9050919050565b610c4b81610c30565b8114610c5657600080fd5b50565b600081359050610c6881610c42565b92915050565b6000819050919050565b610c8181610c6e565b8114610c8c57600080fd5b50565b600081359050610c9e81610c78565b92915050565b60008060408385031215610cbb57610cba610c0b565b5b6000610cc985828601610c59565b9250506020610cda85828601610c8f565b9150509250929050565b60008115159050919050565b610cf981610ce4565b82525050565b6000602082019050610d146000830184610cf0565b92915050565b610d2381610c6e565b82525050565b6000602082019050610d3e6000830184610d1a565b92915050565b600080600060608486031215610d5d57610d5c610c0b565b5b6000610d6b86828701610c59565b9350506020610d7c86828701610c59565b9250506040610d8d86828701610c8f565b9150509250925092565b600060208284031215610dad57610dac610c0b565b5b6000610dbb84828501610c59565b91505092915050565b600060ff82169050919050565b610dda81610dc4565b82525050565b6000602082019050610df56000830184610dd1565b92915050565b60008060408385031215610e1257610e11610c0b565b5b6000610e2085828601610c59565b9250506020610e3185828601610c59565b9150509250929050565b7f4e487b7100000000000000000000000000000000000000000000000000000000600052602260045260246000fd5b60006002820490506001821680610e8257607f821691505b602082108103610e9557610e94610e3b565b5b50919050565b7f45524332303a204f776e6572206e6f742068617320656e6f75676820746f6b6560008201527f6e00000000000000000000000000000000000000000000000000000000000000602082015250565b6000610ef7602183610b5b565b9150610f0282610e9b565b604082019050919050565b60006020820190508181036000830152610f2681610eea565b9050919050565b7f45524332303a204e6f7420656e6f75676820616c6c6f77656400000000000000600082015250565b6000610f63601983610b5b565b9150610f6e82610f2d565b602082019050919050565b60006020820190508181036000830152610f9281610f56565b9050919050565b7f4e487b7100000000000000000000000000000000000000000000000000000000600052601160045260246000fd5b6000610fd382610c6e565b9150610fde83610c6e565b925082821015610ff157610ff0610f99565b5b828203905092915050565b600061100782610c6e565b915061101283610c6e565b9250827fffffffffffffffffffffffffffffffffffffffffffffffffffffffffffffffff0382111561104757611046610f99565b5b82820190509291505056fea2646970667358221220378240d042d46780c6101295b45b39f24e269c3d36bc266563d1f307e6c295fb64736f6c634300080d0033",
  "immutableReferences": {},
  "source": "// SPDX-License-Identifier: MIT\r\npragma solidity ^0.8.0;\r\n\r\nimport \"./IERC20.sol\";\r\n\r\ncontract Reserve {\r\n\r\n    event Bought(uint256 amount);\r\n    event Sold(uint256 amount);\r\n\r\n    address public owner;\r\n    modifier onlyOwner() {\r\n        require(msg.sender == owner);\r\n        _;\r\n    }\r\n\r\n    BasicToken public token;\r\n    uint public rate = 1;\r\n\r\n    constructor(string memory _name, string memory _symbol, uint256 _rate) {\r\n        owner = msg.sender;\r\n\r\n        token = new BasicToken(_name, _symbol);\r\n        rate = _rate;\r\n    }\r\n\r\n    function buy() payable public returns (bool) {\r\n        uint256 amountTobuy = msg.value * rate;\r\n\r\n        require(amountTobuy > 0, \"Reserve: You need to send some ether\");\r\n        require(amountTobuy <= token.balanceOf(address(this)), \"Reserve: Not enough tokens in the reserve\");\r\n\r\n        token.transfer(msg.sender, amountTobuy);\r\n        emit Bought(amountTobuy);\r\n\r\n        return true;\r\n    }\r\n\r\n    function sell(uint256 amount) public returns (bool) {\r\n        require(amount > 0, \"Reserve: You need to sell at least some tokens\");\r\n        uint256 allowance = token.allowance(msg.sender, address(this));\r\n        require(allowance >= amount, \"Reserve: Check the token allowance\");\r\n        token.transferFrom(msg.sender, address(this), amount);\r\n        payable(msg.sender).transfer(amount/rate);\r\n        emit Sold(amount);\r\n\r\n        return true;\r\n    }\r\n\r\n    function getTokenAddress() public view returns (address){\r\n        return address(token);\r\n    }\r\n\r\n    function setRate(uint256 newRate) public onlyOwner {\r\n        require(newRate > 0, \"rate must greater than 0\");\r\n\r\n        rate = newRate;\r\n    }\r\n}",
  "sourcePath": "C:\\Users\\My Computer\\Desktop\\FunixSwap\\FunixSwap-BE\\contracts\\Reserve.sol",
  "compiler": {
    "name": "solc",
    "version": "0.8.13+commit.abaa5c0e.Emscripten.clang"
  },
  "schemaVersion": "3.4.14",
  "updatedAt": "2023-08-01T21:56:42.684Z",
  "devdoc": {
    "kind": "dev",
    "methods": {},
    "version": 1
  },
  "userdoc": {
    "kind": "user",
    "methods": {},
    "version": 1
  }
}